:020000040000FA
:10000000A8260020F90200000103000003030000FD
:1000100005030000070300000903000000000000C2
:100020000000000000000000000000000B030000C2
:100030000D030000000000000F030000110300008A
:1000400013030000130300000D09000081050000E8
:1000500091050000130300001303000013030000C8
:10006000BD08000013030000130300001303000089
:100070001303000013030000130300001303000028
:100080001303000013030000130300001303000018
:100090001303000013030000130300001303000008
:1000A00013030000130300001303000013030000F8
:1000B0001303000013030000000000000000000014
:1000C00013030000130300001303000013030000D8
:1000D00013030000130300001303000000000000DE
:1000E0000000000000000000000000000000000010
:1000F0000000000000000000000000000000000000
:1001000000000000000000000000000000000000EF
:1001100000000000000000000000000000000000DF
:1001200000000000000000000000000000000000CF
:1001300000000000000000000000000000000000BF
:1001400000000000000000000000000000000000AF
:10015000000000000000000000000000000000009F
:10016000000000000000000000000000000000008F
:10017000000000000000000000000000000000007F
:10018000000000000000000000000000000000006F
:10019000000000000000000000000000000000005F
:1001A000000000000000000000000000000000004F
:1001B000000000000000000000000000000000003F
:1001C000000000000000000000000000000000002F
:1001D000000000000000000000000000000000001F
:1001E000000000000000000000000000000000000F
:1001F00000000000000000000000000000000000FF
:10020000DFF80CD000F0BAF800480047E90D000014
:10021000A826002030B4044654E8000F0D4644E8F8
:100220000053002BF8D1156030BC704730B4044641
:1002300054E8000F40EA010544E80053002BF7D1D1
:10024000156030BC704730B4044654E8000F00EA33
:10025000010544E80053002BF7D1156030BC70470E
:1002600030B4044654E8000F80EA010544E8005326
:10027000002BF7D1156030BC704730B4044654E809
:10028000000F00EB010544E80053002BF7D1156087
:1002900030BC704730B4044654E8000FA0EB0105B1
:1002A00044E80053002BF7D1156030BC704770B4A0
:1002B00004464FF0000054E8006F0D68AE4207BFDF
:1002C00044E80023012044E800630E60002B1CBFBB
:1002D0000020F0E770BC704730B4044654E8000FCB
:1002E00088422CBF451A054644E80053002BF5D13F
:1002F000156030BC7047000006488047064800473C
:10030000FEE7FEE7FEE7FEE7FEE7FEE7FEE7FEE7C5
:10031000FEE7FEE7A105000001020000004870476B
:100320007C2E000040EA01039B0703D009E008C9C6
:10033000121F08C0042AFAD203E011F8013B00F8AA
:10034000013B521EF9D27047D2B201E000F8012BF6
:10035000491EFBD270470022F6E710B513460A4645
:1003600004461946FFF7F0FF204610BD421C10F866
:10037000011B0029FBD1801A70470000064C074D75
:1003800006E0E06840F0010394E807009847103465
:10039000AC42F6D3FFF738FF242F0000442F0000B3
:1003A0007CB514460D46064606236A463221532084
:1003B00000F0B4F8BDF800003080BDF802002880DD
:1003C000BDF8040020807CBD1CB5044610A00222AC
:1003D000006800908DF801406946532000F0BEF897
:1003E00000208DF80400012301AA2C21532000F0E5
:1003F00095F808489DF8042003210088A24201EBEB
:10040000004001D104A100E00BA101F09FF91CBD47
:100410002C000000B800002053657474696E6720DA
:1004200044617461207261746520537563657373F0
:1004300066756C210000000053657474696E672056
:10044000446174612072617465204661696C656401
:100450002100000008B504A002220068009069464F
:10046000532000F07BF808BD2D0800007CB506463F
:1004700019A01446006800908DF801608DF80210F4
:100480000D468DF8032004226946532000F066F8DB
:1004900000200190032301AA1E21532000F03EF802
:1004A0009DF8042003200D49B2420CD19DF805208F
:1004B000AA4208D19DF80620A24204D1098808A2C8
:1004C00000EB014003E009880DA200EB0140002190
:1004D00001F040F97CBD00001E000000B8000020C3
:1004E00053657474696E67204F6666736574732014
:1004F00053756365737366756C21200A00000000F4
:1005000053657474696E67204F66667365747320F3
:100510004661696C656421200A0000007FB50446CD
:1005200082B000201E4615460090012303AA2146F2
:10053000094800F06FFD08B100F03CFA064821467A
:10054000001D2A46F3B201F013FC002801D000F090
:1005500031FA06B070BD0000642D000008B500231C
:100560000093D3B20A460146044800F053FD002828
:1005700003D0BDE8084000F01DBA08BD642D00009E
:100580000149024802F040B8BC00002000300040A1
:1005900002494FF0402002F037B80000F000002080
:1005A000F0B5B5480023021D0178101D01254FF05C
:1005B000805406290BD11678360708D10678C6F381
:1005C0000316032E06D0042E04D0052E02D00629D1
:1005D00007D00EE0B4F82463A84FC6F304263E60AB
:1005E00002E01678360704D10678C6F30316032E08
:1005F00002D0062904D00FE0A24FA14E7E670EE084
:100600001678360708D10678C6F30316032E06D0EF
:10061000042E04D0052E02D0062907D00EE0D4F80F
:100620004462994FC6F342363E6002E016783607C0
:1006300004D10678C6F30316032E02D0062906D08D
:1006400011E0924E376827F0807737600EE0167819
:10065000360708D10678C6F30316032E06D0042EFB
:1006600004D0052E02D006290AD011E04FF08046B2
:10067000C6F80C31C6F81031834E361F336002E0E5
:100680001678360704D10678C6F30316032E02D077
:10069000062905D00CE07C4F032664373E600AE053
:1006A0001678360704D10678C6F30316032E02D057
:1006B00006290DD014E0764F05263E60744E78363C
:1006C0003560734E083633603F263F1D3E6002E0C2
:1006D0001678360704D10678C6F30316052E02D025
:1006E000062957D062E06B4E36686B4F3E60694E0C
:1006F000361D36683F1D3E60664E083636683F1D23
:100700003E60644E0C3636683F1D3E60614E1036CA
:1007100036683F1D3E605F4E143636683F1D3E60B2
:100720005C4E183636685C4F20373E60594E1C369A
:1007300036683F1D3E60574E203636683F1D3E608E
:10074000544E243636683F1D3E60524E2836366879
:100750003F1D3E604F4E2C3636683F1D3E604D4E6D
:10076000303636684C4F40373E604A4E3436366835
:100770003F1D3E60474E383636683F1D3E60454E51
:100780003C3636683F1D3E60424E403636683F1D5F
:100790003E6002E01678360708D10678C6F30316E5
:1007A000032E06D0042E04D0052E02D0062907D031
:1007B00019E0D4F85812394A01F04F01116002E0F3
:1007C000117809070FD10078C0F30310032803D074
:1007D000042801D0052806D131480168C90702D094
:1007E0006FF001010160D4F83001062808D1D4F877
:1007F0003401062804D12B48016841F4806101606E
:1008000022487438016841F470010160BFF34F8FD2
:10081000BFF36F8F4FF01021D1F80002002803DBE7
:10082000D1F80402002822DA1F4A15601F48046824
:10083000002CFCD01524C1F800420568002DFCD026
:10084000C1F8044201680029FCD013600168002946
:10085000FCD0BFF34F8F0D48F0380168144A01F403
:10086000E06111430160BFF34F8F00BFFDE7124904
:1008700010480860F0BD0000E00F00F04035014076
:100880000DF0ADBA00C007403C050040FCED00E0B3
:10089000105600400404001020C50040E40E004043
:1008A000000400403C17004004E5014000E4014022
:1008B0000400FA050090D0039C0000202DE9F047C9
:1008C000104E042700244FF4A0784FF4803900BF65
:1008D00008EB840509FA04F0715961B1D6F80413E4
:1008E000014208D02946304601F0B7F80648D0E961
:1008F000002128469047641CE4B2BC42E8D3BDE81E
:10090000F08700000080004074010020014800686A
:10091000004700001C00002002E008C8121F08C1A8
:10092000002AFAD170477047002001E001C1121F70
:10093000002AFBD17047000072B600F0B5FF00BF7F
:1009400000F0F8FD0028FBD1104C0121208801EBBC
:1009500000400FA100F0FAFE10480068C00700D068
:1009600000BE2088022101EB00400DA100F0EEFE48
:10097000BFF34F8F0948E43801680D4A01F4E06184
:1009800011430160BFF34F8F00BFFDE7B8000020A7
:10099000466174616C206572726F7200F0ED00E068
:1009A00053797374656D207265736574000000007F
:1009B0000400FA050EB500210091CDE901106A4648
:1009C00044F20100FFF7B8FF0EBD00F003B800F0DD
:1009D00009B8000072B602480168491C01607047FE
:1009E0002400002003490868401E086000D162B658
:1009F00070470000240000202DE9F04106460868F9
:100A00000C46411C4FF0A0474FF0010506D005FAF7
:100A100000F1C7F80815206800F098FC6068411CD8
:100A200002D0002100F080FC3168A069C1F82405E3
:100A3000607D227D31681043C1F86C05D4E9001255
:100A40003068C0F81425C0F80C15207D012815D198
:100A5000A068411C02D0002100F066FCE068411C47
:100A600005D08540C7F80855E06800F06FFCD4E970
:100A700002123068C0F80825C0F81015BDE8F081F2
:100A80002DE9F041064608680C46411C4FF0A0478E
:100A90004FF0010506D005FA00F1C7F808152068E7
:100AA00000F05EFC6068411C02D0002100F045FCB3
:100AB0003168A069C1F82405607D217D3268084352
:100AC000C2F86C05D4E900123068C0F80C15C0F803
:100AD0001425207D012815D1A068411C02D00021D9
:100AE00000F02BFCE068411C05D08540C7F8085594
:100AF000E06800F035FCD4E902123068C0F808253F
:100B0000C0F81015BDE8F0812DE9F0470546861CB8
:100B100090460F464FF001090020FFF756FF1B4C8F
:100B200020683860D4E90001401AA16804F21C472B
:100B3000081A0EE00121384600F0E4F900F006F949
:100B40000146384600F0DEF9D4E90001401AA168F8
:100B5000081A401C8642EDD8B8F1000F03D00520DA
:100B600065F3891002E0062065F39F50A2682168B2
:100B7000114004EB8101C8602068304420600020EF
:100B8000FFF725FF4846BDE8F087000080020020FF
:100B900030B482680468531C8360A154D0E9011208
:100BA0008A4202D330BC00F07EBA30BC70470000ED
:100BB000034803C8814201D10120704700207047DB
:100BC0008002002010B50021024800F0A6F980F351
:100BD000100010BD9C0600202DE9FC5F0E0083462E
:100BE000DDE90C47C6F1000098469246814600D4E4
:100BF0000846012503E000BF90FBFAF06D1C50454C
:100C0000FADAA84500D9454624B1002E01DB780761
:100C100000D5641EB80702D5B8F1000F0AD0F80756
:100C200008D13CB1A54205D220215846641EFFF7E9
:100C3000AFFFF6E7002E02DA4E462D2102E07807DC
:100C400003D52B215846FFF7A3FF07F00300022826
:100C50000BD1B8F1000F08D13CB1A54205D230212B
:100C60005846641EFFF794FFF6E7CDE90047434678
:100C700052463146584602F013F8BDE8FC9F00008A
:100C800070B50D46044600684FF4887100F00CFF03
:100C90004FF49071206800F007FF4FF492712068C4
:100CA00000F002FF4FF4A271206800F0FDFE206802
:100CB0001249C0F8041320686907000B40B2090EFE
:100CC000002806DA00F00F0000F1E02080F8141D83
:100CD00003E000F1E02080F8001420680121000BFF
:100CE00040B200F01F0291404009800000F1E02076
:100CF000C0F88012C0F8001170BD0000100302009F
:100D0000024600201268930702D0530702D47047AE
:100D1000500714D502F00300012802D002280CD19C
:100D200005E0C2F383100B68801C184404E0022322
:100D3000086803EB9252104408600120704708686D
:100D400000EB9253C2F38910401CEEE72DE9FF41FE
:100D50000026234800F0D3F82148001F074600F082
:100D6000CEF8204C60680090A56800E000986946C5
:100D7000284004EB80000C30FFF7C2FF0028F5D1BB
:100D800001AA009901EA050304EB8303491CDB680F
:100D900042F82030401C00910228F2D3019800F064
:100DA000030001280BD0022810D10198032101EB88
:100DB00090500099BDF80A6001EB900005E00198A1
:100DC000BDF80A60C0F3831008440090384600F074
:100DD00093F808B10098606004B03046BDE8F08137
:100DE00098060020800200204FF40041002000F00F
:100DF00017FD08B1FFF7DEFD00F08EFB0C48032164
:100E0000008801EB00400BA100F0A0FC01F0C6FB44
:100E100001F048FB0D48FFF71DFB0A20FFF7D4FA4D
:100E2000002211461046FFF721FB30BFFDE700000E
:100E3000B8000020545749207363616E6E657220BC
:100E4000737461727465642E00000000642D0000EC
:100E50002DE9F047C7880446181D16468946B0FBA1
:100E6000F7F1B0FBF7F207FB12009A193A44D21CD3
:100E7000B2FBF7F2DDF820A001E02468491E00294A
:100E8000FBD13D1A8846B54216D818E0BAF1000FDA
:100E900005D0211809EB08002A46091D04E020446A
:100EA00009EB08012A46001DFFF73CFA00202468E0
:100EB000761BA844B74201D9354600E03D46002ED6
:100EC000E4D1BDE8F087000030B5024659B100F02A
:100ED000D3FC0021074C09E004EB810315685B8813
:100EE000AB4202D11160002030BD491C8142F3D3D6
:100EF000052030BDA0000020002100F009B801212C
:100F000000F010B808B56A46FFF7B7F9009808BDB9
:100F100008B56A46FFF797F908BD08B56A46FFF7B6
:100F200079F908BD08B56A46FFF780F9009808BD51
:100F300008B56A46FFF7AEF9009808BD70B50446DB
:100F400000252846FFF741FD216862680868904245
:100F50000ED9401E08600178A38AE26801FB0325D0
:100F6000227A2168101AC0B20A79824200D208712E
:100F70000020FFF72CFD284670BD70B505460C46D5
:100F80000020FFF722FDE868A98A201AB0FBF1F1E2
:100F90002A681068431C13600170BDE8704000208F
:100FA000FFF715BD10B530B1017A42680368891AA0
:100FB000C9B21A6006E00E2010BD03681A68541CFE
:100FC0001C601170491EC9B2F7D20068002101717E
:100FD000084610BD2DE9F041064604780B48154639
:100FE0000F4640F82420083040F82430487B10B1E8
:100FF000084601F07DFA0DB1054A00E000222346C3
:101000003946301DBDE8F04100F040BE0000002030
:10101000C925000038B5001D049C009400F0C0FEF6
:1010200038BD0000F0B505460478154889B016466D
:1010300040F82420124A0869121DA2F1080742F85C
:101040002400487F385520226846FFF76BF9049446
:101050002878385C48B10EB10A4A00E0002269469F
:10106000281D01F003F809B0F0BD0EB1064A00E0FA
:101070000022694605F10C0000F0CAFEF3E700000B
:10108000140000207D2B0000C92900000FB408B512
:101090000399002904D004AA00926A4600F00FF8D0
:1010A00001B05DF814FB10B582680446002A05D033
:1010B000D4E90403216898470020A06010BD2DE901
:1010C000FC4791460C00804676D014F8011B39B1DC
:1010D00025290ED04046FFF75BFD20780028F4D18B
:1010E00098F80C00002867D04046BDE8FC47FFF7A1
:1010F000DABF0020012221782B291BD02D2902D014
:10110000302908D102E040F0010001E040F0020087
:10111000641C002AEFD100252A290ED02178A1F1E4
:1011200030020A2A11D205EB850201EB4205641C4C
:10113000303DF1E740F00400EAE7D9F800100B1D5C
:10114000C9F800300968641C0D44217800232E2959
:101150000BD114F8011FA1F130020A2A05D203EBCA
:10116000830201EB4203303BF3E76C290DD0682981
:101170000BD0692921D00BDC252918D0582931D072
:1011800063290ED0642915D117E014F8011FECE78C
:10119000702969D0732932D075291BD0782909D1DB
:1011A00020E0D9F80000011DC9F800100178404680
:1011B000FFF7EEFC641C90E76CE0D9F800100A1D04
:1011C000C9F800200968CDE900500A224046FFF71F
:1011D00003FDEFE7D9F800100A1DC9F800200968DF
:1011E0000A2206E0D9F800100A1DC9F80020096893
:1011F0001022CDE90050404601F052FDDAE7D9F85F
:10120000001000270A1DC9F800200E68C00705D18C
:1012100012E04046761C7F1CFFF7BAFC31780029AB
:10122000F7D104E0202140466D1EFFF7B1FCBD421E
:10123000C0D9002DF6D1BDE74EB13046FFF796F884
:10124000074604E0202140466D1EFFF7A1FCBD4289
:1012500006D9002DF6D103E04046761CFFF798FC36
:1012600031780029F8D1A5E7D9F80000011DC9F8A7
:101270000010056830214046FFF78AFC782140467F
:10128000FFF786FC08200021CDE90001034610226B
:101290002946B0E7BDE8FC8770B541EA4201DDE9C7
:1012A00004564FF0A04441EA830141EA052104EBD2
:1012B000800041EA0641C0F8001770BD70B541EAF0
:1012C0004201DDE904564FF0A04441EA830141EABE
:1012D000052104EB800041EA0641C0F8001770BD0B
:1012E00070B541EA4201DDE904564FF0A04441EAFD
:1012F000830141EA052104EB800041EA0641C0F880
:10130000001770BD1CB5002100910B460122019110
:10131000FFF7D4FF1CBD1CB5002100910B46012234
:101320000191FFF7DDFF1CBD1CB500220B460092AA
:1013300011460192FFF7C2FF1CBD1CB500220B46EF
:10134000009211460192FFF7CBFF1CBD1CB5002196
:1013500000910B46012201911146FFF7AFFF1CBD22
:101360001CB5002100910B46012201911146FFF7A7
:10137000B7FF1CBD4FF0A04201218140C2F8081503
:101380007047000030B5124B01460020D3F81044DE
:10139000224609E0157A854205D1401C0A28F7DB70
:1013A0004FF0FF3030BD5268002AF3D1421CF9D013
:1013B0000872D3F810242AB152684A60D3F8102476
:1013C000516030BD0022C3F810144A6030BD0000E7
:1013D00080020020F0B595B01C4615460F46084621
:1013E0001A9E00F019FB182109A8FEF7B4FF0E960B
:1013F000CDE909540023082203A9384600F021FB57
:1014000005980690BDF81000ADF81C00BDF812005C
:10141000ADF81E0000208DF821000398082600F08A
:101420000300012802D0022818D032E00398334686
:10143000850AC0F3C2008DF8200003980FA9C0F3FD
:101440008314A200384600F0FCFA09A8009006AB0D
:1014500022460FA9284600F03BFA1AE00398840DB3
:10146000C0F3C2008DF82000082C01D2254600E010
:10147000082533462A460FA9384600F0E2FA2E44E2
:10148000641B09AB06AA29460FA800F073F9002CCB
:10149000EAD1384600F0C6FA15B0F0BD704700201A
:1014A00001F0B0BA084810B50178084A515C19B18A
:1014B000001D00F067FE02E00C3000F075FDBDE895
:1014C0001040002001F09EBA2C00002010000020E7
:1014D00008B5034A00924023024AFFF77BFF08BD8C
:1014E00081230000800100200A4A012902EBC0008C
:1014F00007D0022907D0032907D0042907D00020EC
:101500007047022070470420704700797047407987
:1015100070470000442F000010B5FFF7C0FF042102
:101520000348FFF72FFF02490120487210BD000059
:10153000400000202DE9F0478CB0FFF739FB18B1CF
:1015400000200CB0BDE8F087784C0020C4F81804E7
:10155000BFF34F8F60680290A5684FF000082840E5
:1015600004EB800008E021680298814201D86160A4
:10157000E6E7284004EB80000C3002A9FFF7C0FB2F
:101580000028F0D103AB029901EA050204EB8202C4
:10159000491CD26843F82020401C02910228F2D353
:1015A000039800F00300022802D001284ED0A5E0E5
:1015B00003985022810D8946B2EB905F00D85021EC
:1015C0000E4666F39F5003900831594800F0DBF94E
:1015D000070078D000F020FA4346082203A93846D5
:1015E00000F035FA029908F1080A2940681A8000CB
:1015F000001D864223D94D4D0C3530B1C2B204EBEB
:101600008101301A90460C3104E02946F2B20025DF
:1016100090462846C6B25346384600F018FA0AEB00
:1016200008032DB1324629464FEA070000F00FFAB1
:10163000029909F1030001EB900002903AE004EBFB
:1016400081015346324638460C31EFE70398C0F328
:101650008311062900D3062161F389100390C0F39A
:101660008310801C8100324800F08DF9070045D0BE
:1016700000F0D2F94346082203A9384600F0E7F902
:1016800008F1080800260FE00298434600EA050129
:10169000401C04EB81010290042238460C3100F01A
:1016A000D6F908F10408761C0398C0F38310B04201
:1016B000EAD847B1D4F81054D4F8180468B13846C1
:1016C00000F0B0F92CE019E0687A012804D12A680A
:1016D00028463946126890476D68002DF4D1384687
:1016E00000F0A0F90020FFF770F9D4F8180408B949
:1016F000029860600020FFF76AF911E0D4F8104406
:1017000004E021682046896888476468002CF8D185
:1017100008480221008801EB004007A100F016F8FC
:10172000FFF746FA80F001000BE70000800200207E
:101730007C2F0000B80000204261636B656E64730B
:1017400020666C75736865640000000000231A460B
:1017500000F036BE08B5012300926A4600F030FE64
:1017600008BD3EB5069C8DE81C0003236A4600F0C8
:1017700027FE3EBD2DE9F0470E4680461C469246A8
:1017800008293ED894F80C90002020731946104682
:1017900000F06EFD0025B54206D218F805201AA10A
:1017A0002046FFF773FC03E019A12046FFF76EFC0B
:1017B0006D1C082DEFD317A12046FFF767FC00250D
:1017C000B54210D218F80570FEF7A8FD0068C05D9C
:1017D00010F03E0F01D03A4600E02E220EA1204626
:1017E000FFF754FC03E00DA12046FFF74FFC6D1CF2
:1017F000082DE5D301222146504600F01BFD84F858
:101800000C90BDE8F0870000202530327800000001
:10181000202020007C000000256300002000000044
:10182000104810B5FF218160002101604160C0F8BF
:101830001814C0F81414012180F820140A4800F08C
:10184000EFF800280CD1094809490A4B401AC10891
:10185000002002E023F82000401C8842FAD3002038
:1018600010BD0000800200207C2F00007C2F0000B3
:10187000442F0000A000002002480349401AC0087D
:10188000704700007C2F0000442F000013B568460D
:10189000FFF71AFB08B100201CBD0248009950F860
:1018A00031001CBD442F000070B508480125D0F858
:1018B000104480F8205405E065722168204649688C
:1018C00088476468002CF7D170BD000080020020BA
:1018D0002DE9FF4781460C9D00200C462F7B287385
:1018E000984616462946184600F0C2FC072E42D2FA
:1018F000DFE806F004090F161F2A3600494628467D
:10190000FFF7C4FB37E0494628462268FFF7BEFBD5
:1019100031E0D4E9002349462846FFF7B7FB2AE027
:10192000A0680090D4E9002349462846FFF7AEFBA3
:1019300021E0D4E90201CDE90001D4E900234946C0
:101940002846FFF7A3FB16E004F1080007C88DE85E
:101950000700D4E9002349462846FFF797FB0AE031
:1019600004F108000FC88DE80F00D4E900234946B0
:101970002846FFF78BFB00222946404600F05AFC20
:101980002F73BDE8FF872DE9F041858A80462D1F22
:101990004819C01CB0FBF5F0C6B24046FFF7CEFABE
:1019A000041E19D00020207101206071E5800027FD
:1019B0002546761EC4F800800BE04046FFF7BEFACD
:1019C00060B16179491C6171286005467F1CC0F8CF
:1019D0000080B742F1D32046BDE8F081204600F0F8
:1019E00002F80020F8E72DE9F041457901466B1E29
:1019F000002201E00968521C9A42FBD30F6801469D
:101A0000002605E038460C68FFF7B7FA2146761C39
:101A1000AE42F7D3BDE8F0810121001DFFF772BA95
:101A2000FFF7C0BA10B504460121001DFFF780FA88
:101A300010F0FF0F04D12046BDE81040FFF7D3BFE0
:101A400010BD38B501240094FFF702FA38BD38B54F
:101A500000240094FFF7FCF938BD08B5002242507D
:101A60004058009008BD4058002800D00120704721
:101A700008B5002242504058009008BD4058002848
:101A800000D00120704708B5002242504058009015
:101A900008BDD0F80403084000D00120704740582A
:101AA000002800D00120704708B50022425040585D
:101AB000009008BD002802D0014980010847704706
:101AC000912D00000121B1EB507F01D10120704721
:101AD000002070470121B1EB507F01D101207047F8
:101AE0000020704770B50D4600F00EFC04000FD0CA
:101AF0000020FEF76AFF207920B10020FEF767FF83
:101B0000112070BD0120256020710020FEF75FFFCD
:101B1000002070BD10B500F0F7FB002802D00021B6
:101B20000160017110BD2DE9F04106460D464FF4EC
:101B3000803400681746AC404BB14FF4A07101EB04
:101B40008501FFF78AFF3068C0F8044301E0C0F860
:101B50000843306800EB8500C0F84075BDE8F081AF
:101B6000016801220A600079034A00EB400002EBA1
:101B7000800002210172704774010020F0B40468F3
:101B8000049E40F20115D4F800728D40AF43C4F8B2
:101B900000720468D4F800521D43C4F80052334662
:101BA000F0BCFFF7C0BF00002DE9F04104460E462F
:101BB00000792C4900EB400001EB8007387A10B126
:101BC0000820BDE8F0813A60706800254FF4A078E5
:101BD000786006E008EB85012068FFF73EFF6D1C8A
:101BE000EDB26079A842F5D82068F178000B40B2D8
:101BF00000284FEA411106DA00F00F0000F1E02062
:101C000080F8141D03E000F1E02080F80014206843
:101C10000122000B40B200F01F0302FA03F1400959
:101C2000800000F1E020C0F88012C0F800112068A8
:101C30007178D0F8043561F30103C0F804352068E9
:101C4000B178D0F8083561F30103C0F80835206891
:101C50003178D0F8103561F30303C0F810353A72CB
:101C60000020AEE7740100200179006801EB8102D9
:101C700002EBC101044A02EB81010622C0F80025F3
:101C8000022081F82D007047BC0000202DE9FC41A6
:101C90000646007917460D4600EB8001324A01EBFB
:101CA000C00102EB8104984694F82D1011B1082070
:101CB000BDE8FC812D4951F820103068FFF712FF74
:101CC00008B11120F4E7C4E900780027A76084F880
:101CD000307084F82F70687B84F832004FF006086B
:101CE000CDE9008703233A4639462868FFF7D4FA3E
:101CF000CDE900870022032311466868FFF7CCFA7C
:101D0000D5E900123068C0F80815C0F80C25A9689C
:101D1000C0F824152168012009B331682A7B090B1A
:101D200049B200294FEA421206DA01F00F0101F12F
:101D3000E02181F8142D03E001F1E02181F8002475
:101D40003168090B49B201F01F0300FA03F2490997
:101D5000890001F1E021C1F88022C1F8002184F856
:101D60002D000020A4E70000BC000020982D0000FA
:101D7000F0B585B015460E4607461C4614220749A5
:101D80006846FEF7CFFA8DF80160002269463846B2
:101D90000395019400F020F805B0F0BDA02D0000DF
:101DA0002DE9F04186B00E4680461C4615461421AA
:101DB00068460C9FFEF7CFFA8DF8016003950194F9
:101DC0000FB1202200E000226946404600F004F8EE
:101DD00006B0BDE8F081000030B40379006803EB81
:101DE000830404EBC303054C04EB830413460A4647
:101DF0000146204630BC00F0ADBC0000BC00002015
:101E00000149024800F026BE2401002000200040C5
:101E10002DE9F0410546007916460F4600EB4001DA
:101E20002D4A01EBC00102EB810494F82A1011B194
:101E30000820BDE8F081294951F820102868FFF7F3
:101E400051FE08B11120F4E739462846FEF7D4FDCB
:101E500066603869206030004FF001062FD03F7F68
:101E60004FF48E712868FFF70EFE4FF4A2712868B8
:101E7000FFF709FE28681A49C0F8041328684FEADA
:101E80004711000B40B2002806DA00F00F0000F105
:101E9000E02080F8141D03E000F1E02080F8001439
:101EA0002868000B40B200F01F0206FA02F1400958
:101EB000800000F1E020C0F88012C0F8001128680E
:101EC0000421C0F800150020A061E06184F8290019
:101ED00044F8140FA675ACE724010020B42D0000CF
:101EE000800002002DE9F047054600790B4600EB23
:101EF000400101EBC000234901EB8004284600F0BB
:101F000043F810B11120BDE8F0874FF00008C4F885
:101F10002080A360626184F828804FF48E76474663
:101F200031462868FFF7AFFD28684FF00109C0F877
:101F300008902146286800F029FD606800BBD5F8AC
:101F400000A00EE094F8280008B10F2716E03146F3
:101F50005046FFF793FD0028F4D02146504600F08C
:101F600015FD216A60698142F1D331462868FFF787
:101F700085FD0028F9D02868C0F80C90C4F81480BA
:101F80003846C0E724010020007900EB400101EB56
:101F9000C000044901EB80004069002800D0012006
:101FA00070470000240100202DE9F0470446007925
:101FB0004FF0000900EB400101EBC000254901EBA7
:101FC00080072068C0F80095786880B120682249B1
:101FD000C0F8081320680121000B40B200F01F0276
:101FE00091404009800000F1E020C0F88011206895
:101FF000D0F80C25D0F81485D0F80865D0F8105525
:102000004FF0FF31C0F81415C0F80C152068C0F867
:102010000815C0F81015501C02D01046FFF772F9D1
:10202000B8F1FF3F02D04046FFF76CF9681C02D0C0
:102030002846FFF767F9701C02D03046FFF762F9B7
:102040002068FFF767FD87F82A90C7F80490BDE87D
:10205000F0870000240100208402020001490248A8
:1020600000F0A4BD50010020002000402DE9F04107
:102070000546164600790F46154A00EBC00102EBF3
:10208000810494F8201011B10820BDE8F0811149B5
:1020900051F820102868FFF725FD08B11120F4E75A
:1020A00039462846FEF7ECFC6660386920601EB1B0
:1020B000397F2846FEF7E4FD28680821C0F800159E
:1020C0000020A061E0610121606184F82010DCE75C
:1020D00050010020B82D00002DE9F04704460E46BF
:1020E0000079204900EBC00001EB8005174630461F
:1020F000FFF7F0FC30B1204600F036F820B1112097
:10210000BDE8F0871020FBE76F61AE604FF490767A
:10211000002731462068FFF7C7FC4FF4AC784146F2
:102120002068FFF7C1FC2068AA686969C0F84425E7
:10213000C0F84815206801218160686878B9B14607
:1021400049462068FFF7ABFC064641462068FFF78A
:10215000A6FC0643F4D000B10F2700206861384682
:10216000CEE70000500100200079054900EBC000D7
:1021700001EB80004069002800D00120704700007A
:10218000500100202DE9F04704460079274900EB73
:10219000C00001EB800720684FF00009C0F80095EF
:1021A000786880B120682249C0F8081320680121AE
:1021B000000B40B200F01F0291404009800000F186
:1021C000E020C0F880112068D0F80C25D0F81485E4
:1021D000D0F80865D0F810554FF0FF31C0F80C1555
:1021E000C0F814152068C0F80815C0F81015501C68
:1021F00002D01046FFF78FF8B8F1FF3F02D04046FB
:10220000FFF789F8681C02D02846FFF784F8701C95
:1022100002D03046FFF77FF82068FFF77BFC87F895
:102220002090C7F80490BDE8F0870000500100201E
:102230001003020010B50C46017A052908D0407A37
:1022400038B1084808A102682046FEF71FFF00E0E9
:102250001AB106A12046FEF719FF2046BDE810403E
:10226000FEF721BF78000020257300000D0A000052
:1022700038B5C3880D46044633B114A0009015A2AA
:1022800016A12846FEF702FF217A05291CD0607AA4
:1022900048B1A088FFF728F9164951F8202016A167
:1022A0002846FEF7F3FEA0880021FFF7EFFA034669
:1022B0001049207A143951F8202001B02846BDE891
:1022C00030400EA1FEF7E2BE38BD00001B5B306D52
:1022D000000000001B5B313B33316D0025734C6FF8
:1022E00067732064726F70706564202825642925E7
:1022F000730D0A0078000020257300003C25733E12
:102300002025733A200000000349884201D1034888
:102310007047002070470000002000401C00002093
:1023200070B5054688690C4600284FF4847128462C
:102330000AD0FFF7A8FBD5F81805626AE16888544F
:10234000606A401C606270BDFFF79DFBD5F8180500
:1023500070BD1FB501238DF80030CDE90121D0E912
:102360000012684690471FBD1FB501238DF800304D
:102370008DF808100192D0E90012684690471FBD01
:1023800070B50D4C0020D2B22070201D0B4D03788B
:10239000EB5C1BB1001DFFF79FFE02E00C30FFF766
:1023A000A1FD08B1FEF706FB6078002802D0217875
:1023B0000029FAD070BD0000280000201000002085
:1023C0002DE9F84F204D924689460646984601224F
:1023D00069461846AF68FEF797FB58B3009800218E
:1023E0000446801C09E000BF00EA07035AF82120D8
:1023F00005EB8303401C491CDA604145F4D34FEAE6
:10240000164AFEF7DFFB4AEA0041601C384005EB44
:1024100080003C4005EB8402C160D06866F3C500D3
:1024200068F3891069F39F2020F00300401C20F01E
:102430000400D06095F8200402E000BFFFF77AF8AE
:102440000028FBD1BDE8F88F800200201FB5B0F551
:10245000A07F13D103AA02A901A8FDF7A1FFBDF92E
:102460000C00009006480321BDF908300088BDF932
:10247000042001EB004003A1FFF773F91FBD00002A
:10248000B800002041434320444154413A202058A1
:102490003A2025642020593A20256420205A3A20E9
:1024A000256420000EB50F490F4AD1E90201CDE99C
:1024B000010101A90B48FFF777FB08B1FEF77AFA93
:1024C00008480068D0F81005084A0021C2400120E1
:1024D000034600900348FFF751FB0248FFF740FB1B
:1024E0000EBD0000542D00004D240000006A1800AD
:1024F0002DE9F041044640F20C602168890001F1A9
:10250000A041C1F800076168890001F1A041C1F84C
:1025100000072068FEF72EFF6068FEF72BFF21689A
:1025200040F20D60890001F1A041C1F80007616827
:10253000890001F1A041C1F800070420FFF7BAFAB1
:1025400000274FF0A04601252179D6F81005C84094
:1025500010F0010F02D0002F1DD010E0217805FAF5
:1025600001F0C6F80C050420FFF7A4FA2068FEF776
:1025700001FF0420FFF79EFA7F1C092FE4DB20797E
:102580008540C6F80C550420FFF794FA6068BDE852
:10259000F041FEF7EFBEBDE8F08100001FB5094B2A
:1025A0000FCB8DE80F00074800231A466946103804
:1025B000FEF710FD08B1FEF7FDF902480C38FFF7F1
:1025C00053FB1FBD742D00001FB50A4601788DF81E
:1025D000001001798DF8041041798DF80510017A09
:1025E0008DF80610017B8DF8071001690291406992
:1025F0000390044850F82210083850F8222068460A
:1026000090471FBD080000202DE9F04F0D464FF404
:10261000927887B004464146FFF725FA4FF0020B47
:1026200001264FF4827740B141462046FFF720FA59
:1026300039462046FFF717FAC0B34FF4827120469F
:10264000FFF711FADFF808810100EA4605F10C09ED
:102650004FF000073ED04FF482712046FFF708FA92
:10266000142249460AF10400FDF75CFE95F82E009D
:1026700058B1287B012827D0D4F84C050290287B3C
:10268000022824D0D4F84C0503904FF4B0712046B2
:10269000FFF7EEF94FF4AE712046FFF7E9F995F830
:1026A0003000A8B395F82E0090BB37E0FFE7A8688C
:1026B000C4F80803C5F808B0A868C4F80403266283
:1026C000666107B0BDE8F08FD4F83C05D6E7D4F8D2
:1026D0003C05D9E74FF4A4712046FFF7C9F9287BE0
:1026E00068B14FF40070C4F80002801CA860C4F800
:1026F0000883A868C4F80403A6602662E1E71422F0
:1027000049460AF10400FDF70DFE95F8300028B99E
:102710000020C4F80002AF60C4F80883D4F8C404F1
:10272000C4F8C404810702D58DF8006006E04007B4
:1027300002D58DF800B001E08DF8007095F83000FA
:1027400008B985F82F70D5E9002168469047B8E7A9
:1027500002029C012DE9F05F06461F4615460C4615
:102760004FF0000A4FF0080B4FF48279D068FFF762
:10277000A9F900287ED08348C4F8080396F82F00F2
:1027800028B1B068C4F804031120BDE8F09F7807B1
:1027900003D4F80601D4012000E0002086F82F00C1
:1027A0001422294606F10C00FDF7BCFDC7F300100A
:1027B00086F830006878C4F888054FF482712046A6
:1027C000FFF756F94FF492712046FFF751F9F807D9
:1027D0004FF0010800D04046C4F85005B80701D5B5
:1027E000404600E00020C4F84005287800286BD05F
:1027F00001287CD002284DD0032814D04FF0070ABE
:10280000380704D42878032801D044F80B803068B6
:1028100000286DD0780702D54FF40070B060B06822
:10282000C4F80403ABE02869FFF74CF910B34FF488
:102830008070C4F800026968E868C4F84405C4F808
:1028400048154FF4A8712046FFF712F94FF4B07104
:102850002046FFF70DF94FF4A4712046FFF708F961
:10286000C4F82080C4F808804FF4A8712046FFF710
:10287000FAF800E026E00028F6D04FF4A8712046D0
:10288000FFF7F6F8A9682869C4F84405C4F84815A4
:102890003D4815E06968E868C4F84405C4F848157F
:1028A0002869FFF70FF968B12969A868C4F83415D9
:1028B000C4F838054FF48450C4F8000240F20220F6
:1028C000B0609DE7102060E7E9686868C4F84415C7
:1028D000C4F84805B8060FD54FF48070C4F800025C
:1028E0002948B0604FF4A4794946204601E00CE045
:1028F0001BE0FFF7BDF805E04FF40070C4F80002DC
:10290000801CB060C4F820807AE7E9686868C4F881
:102910003415C4F838054FF48050C4F8000240F272
:102920000220B0604FF0000BECE745464FF4827791
:102930004FF492780BE041462046FFF794F830B10F
:1029400041462046FFF794F825626561B94649463D
:102950002046FFF788F80028EDD0D4F8C404C4F866
:10296000C404002186F82F1048B10321820701D545
:1029700048F20121400701D548F202218A4650461B
:1029800003E7000002029C010002040070B50C463F
:1029900005464FF48E71FFF776F8216AA068415C16
:1029A000206A401C2062C5F81C1570BD1FB50022AE
:1029B0008DF800200291816801914261D0E90012F6
:1029C000684690471FBD00001FB50A4601788DF884
:1029D000001041680191017A8DF80810C0680390D9
:1029E000044850F82210001F50F8222068469047F3
:1029F0001FBD000018000020014901200870704729
:102A00002800002010B588B0044620220E496846F0
:102A1000FDF788FC06200090C01F019002900390F3
:102A20004FF0EB7006900CB1084A00E000226946B6
:102A30000748FEF7F7FA08B1FDF7BCFF0448001F8E
:102A4000447008B010BD0000D82D0000F929000026
:102A50002C0000202DE9FF470C4605464FF400717D
:102A6000FFF717F801274FF40178002618B34FF449
:102A7000927949462846FFF701F8E0B149462846D1
:102A8000FFF701F8C5F8088394F8290000B96F60D2
:102A900002208DF80000D5F88004C5F8800403906A
:102AA000A0690290E0680190A661E661D4E9001295
:102AB0006846904728E004212846FEF7EAFF18B34D
:102AC0004FF484712846FEF7D9FFE8B12146284625
:102AD000FFF726FC616AA069884215D1E06938B128
:102AE000E268616AA0612069E6616662E06008E010
:102AF00094F8290000B96F60C5F80883A661E26800
:102B0000616A2046FFF725FC4FF48E78414628463F
:102B1000FEF7B4FF78B1206A6169884202D294F866
:102B2000280020B341462846FEF7ADFF616911B188
:102B30002046FFF73BFF4FF4A27841462846FEF7B8
:102B40009DFF002818D041462846FEF79CFF94F8C8
:102B5000290000B12F60A06900280DD0A661E268AD
:102B6000616A04B02046BDE8F047FFF7F2BB21469A
:102B70002846FFF70BFFDEE7BDE8FF871FB50A46D3
:102B800001788DF8001041680191017A8DF80810E4
:102B9000C0680390044850F82210001F50F822200B
:102BA000684690471FBD0000180000202DE9FF4136
:102BB0000C464FF4927705463946FEF770FF002623
:102BC000C0B139462846FEF76FFF02208DF800009D
:102BD000D5F88004C5F880040390D5F83C058DF83D
:102BE0000800E0680190A661E661D4E90012684639
:102BF000904723E04FF4887739462846FEF74FFF89
:102C0000E0B139462846FEF74FFFD5F83C15A069DC
:102C1000884213D1E06960B1E268D5F8000220F083
:102C20002000C5F80002E069A0612069E661E0606B
:102C300001E0A661E2682046FFF796FB4FF4A27719
:102C400039462846FEF72BFF60B139462846FEF785
:102C50002BFFA06930B1A661D5F83C152046E2688B
:102C6000FFF782FB4FF4907739462846FEF717FFAF
:102C7000002813D039462846FEF716FF6069002861
:102C80000CD0D5F84C058DF800608DF80800A068D0
:102C900001906661D4E9001268469047BDE8FF8163
:102CA0002DE9F05F8346DDE90A4A994690460D46D4
:102CB0000846012703E000BFB0FBF8F07F1C404549
:102CC000FAD2B94500D94F465FEACA7012D18CB129
:102CD0005FEA8A7002D5B9F1000F01D0202607E023
:102CE000302605E031465846641EFDF751FF0CB111
:102CF000A742F7D35FF00106B9F1010F02D9A9F19C
:102D0000010903E0B5FBF6F0404502D306FB08F6E7
:102D1000F2E7DFF83C9000BFB5FBF6F000FB16557C
:102D200019F800105846FDF733FFB6FBF8F6002EF1
:102D3000F2D15FEACA7009D0002C07D0A74205D2B1
:102D400020215846641EFDF723FFF5E7BDE8F09FFC
:102D5000BC2D0000008000400004000000000307BC
:102D600000000000000000000030004000000000F3
:102D7000010000001B0000001A0000000000980184
:102D80000200000000000000000000000000000041
:102D90000338FDD870470000810500009105000050
:102DA0000100000000000000000000000000000022
:102DB00000000000011E00005D20000030313233B1
:102DC000343536373839414243444546D114000042
:102DD000A51400009D140000FFFFFFFFFFFFFFFF91
:102DE000FFFFFFFFFFFFFFFF0000000000000000EB
:102DF0000000D60107010000004040404040404034
:102E000040404141414141404040404040404040BD
:102E10004040404040404040400502020202020261
:102E200002020202020202020220202020202020B0
:102E300020202002020202020202909090909090C4
:102E40001010101010101010101010101010101082
:102E500010101010020202020202888888888888F6
:102E600008080808080808080808080808080808E2
:102E7000080808080202020240000000F92D0000C4
:102E80007761726E696E6700646562756700000045
:102E90001B5B313B33306D001B5B306D000000006D
:102EA0001B5B313B33316D001B5B313B33326D00BB
:102EB0001B5B313B33336D001B5B313B33346D00A7
:102EC0001B5B313B33356D001B5B313B33366D0093
:102ED0001B5B313B33376D00696E666F000000008D
:102EE0006572726F72000000505253005457494D82
:102EF000000000005541525400000000554152545A
:102F00004500000054494D455200000062616C6C60
:102F10006F632E6C6F675F6D656D706F6F6C000017
:102F200061707000942F000000000020BC000000C1
:102F30001809000050300000BC000020EC25000003
:102F400028090000E82E000000000000EC2E000020
:102F500000000000F42E000000000000FC2E000025
:102F600000000000042F0000000000000C2F0000F3
:102F700000000003202F0000000004045400002083
:102F80004C00002054000020C0010020B4000020AC
:102F90001800000000000000000000000000000019
:102FA0000000000000000000000000000000000021
:102FB0000000000000000000000000000000000011
:102FC0000000000000200040000000000020004041
:102FD00000000000CC2D00000000000000000000F8
:102FE00000000000000000000000000000000000E1
:102FF000000000000000000000000000E02E0000C3
:10300000802E0000D82E0000882E0000982E000090
:10301000902E0000A02E0000A82E0000B02E000070
:10302000B82E0000C02E0000C82E0000D02E0000D8
:103030000090D0030000000000000000000000002D
:103040000000000000000000000000000000000080
:0400000500000201F4
:00000001FF
